{
  "contractName": "Scribe",
  "abi": [
    {
      "anonymous": false,
      "inputs": [
        {
          "indexed": false,
          "internalType": "address",
          "name": "dictator",
          "type": "address"
        },
        {
          "indexed": false,
          "internalType": "address",
          "name": "tokenAddress",
          "type": "address"
        },
        {
          "indexed": false,
          "internalType": "uint256",
          "name": "tokenId",
          "type": "uint256"
        },
        {
          "indexed": false,
          "internalType": "string",
          "name": "text",
          "type": "string"
        }
      ],
      "name": "Record",
      "type": "event"
    },
    {
      "constant": true,
      "inputs": [
        {
          "internalType": "bytes",
          "name": "",
          "type": "bytes"
        },
        {
          "internalType": "uint256",
          "name": "",
          "type": "uint256"
        }
      ],
      "name": "documents",
      "outputs": [
        {
          "internalType": "address",
          "name": "dictator",
          "type": "address"
        },
        {
          "internalType": "string",
          "name": "text",
          "type": "string"
        },
        {
          "internalType": "uint256",
          "name": "creationTime",
          "type": "uint256"
        }
      ],
      "payable": false,
      "stateMutability": "view",
      "type": "function"
    },
    {
      "constant": true,
      "inputs": [
        {
          "internalType": "bytes",
          "name": "",
          "type": "bytes"
        }
      ],
      "name": "documentsCount",
      "outputs": [
        {
          "internalType": "uint256",
          "name": "",
          "type": "uint256"
        }
      ],
      "payable": false,
      "stateMutability": "view",
      "type": "function"
    },
    {
      "constant": false,
      "inputs": [
        {
          "internalType": "address",
          "name": "_tokenAddress",
          "type": "address"
        },
        {
          "internalType": "uint256",
          "name": "_tokenId",
          "type": "uint256"
        },
        {
          "internalType": "string",
          "name": "_text",
          "type": "string"
        }
      ],
      "name": "dictate",
      "outputs": [],
      "payable": false,
      "stateMutability": "nonpayable",
      "type": "function"
    },
    {
      "constant": true,
      "inputs": [
        {
          "internalType": "address",
          "name": "_tokenAddress",
          "type": "address"
        },
        {
          "internalType": "uint256",
          "name": "_tokenId",
          "type": "uint256"
        }
      ],
      "name": "getDocumentKey",
      "outputs": [
        {
          "internalType": "bytes",
          "name": "",
          "type": "bytes"
        }
      ],
      "payable": false,
      "stateMutability": "pure",
      "type": "function"
    }
  ],
  "bytecode": "0x608060405234801561001057600080fd5b50610be2806100206000396000f3fe608060405234801561001057600080fd5b506004361061004c5760003560e01c8063141b2dc8146100515780633c98f706146101185780634155361f146101e75780638f9cb9381461035f575b600080fd5b61009d6004803603604081101561006757600080fd5b81019080803573ffffffffffffffffffffffffffffffffffffffff16906020019092919080359060200190929190505050610444565b6040518080602001828103825283818151815260200191508051906020019080838360005b838110156100dd5780820151818401526020810190506100c2565b50505050905090810190601f16801561010a5780820380516001836020036101000a031916815260200191505b509250505060405180910390f35b6101d16004803603602081101561012e57600080fd5b810190808035906020019064010000000081111561014b57600080fd5b82018360208201111561015d57600080fd5b8035906020019184600183028401116401000000008311171561017f57600080fd5b91908080601f016020809104026020016040519081016040528093929190818152602001838380828437600081840152601f19601f820116905080830192505050505050509192919290505050610468565b6040518082815260200191505060405180910390f35b6102aa600480360360408110156101fd57600080fd5b810190808035906020019064010000000081111561021a57600080fd5b82018360208201111561022c57600080fd5b8035906020019184600183028401116401000000008311171561024e57600080fd5b91908080601f016020809104026020016040519081016040528093929190818152602001838380828437600081840152601f19601f82011690508083019250505050505050919291929080359060200190929190505050610496565b604051808473ffffffffffffffffffffffffffffffffffffffff1673ffffffffffffffffffffffffffffffffffffffff16815260200180602001838152602001828103825284818151815260200191508051906020019080838360005b83811015610322578082015181840152602081019050610307565b50505050905090810190601f16801561034f5780820380516001836020036101000a031916815260200191505b5094505050505060405180910390f35b6104426004803603606081101561037557600080fd5b81019080803573ffffffffffffffffffffffffffffffffffffffff16906020019092919080359060200190929190803590602001906401000000008111156103bc57600080fd5b8201836020820111156103ce57600080fd5b803590602001918460018302840111640100000000831117156103f057600080fd5b91908080601f016020809104026020016040519081016040528093929190818152602001838380828437600081840152601f19601f8201169050808301925050505050505091929192905050506105a8565b005b60606104606104528461093a565b61045b846109fc565b610a40565b905092915050565b6001818051602081018201805184825260208301602085012081835280955050505050506000915090505481565b60008280516020810182018051848252602083016020850120818352809550505050505081815481106104c557fe5b9060005260206000209060030201600091509150508060000160009054906101000a900473ffffffffffffffffffffffffffffffffffffffff1690806001018054600181600116156101000203166002900480601f0160208091040260200160405190810160405280929190818152602001828054600181600116156101000203166002900480156105985780601f1061056d57610100808354040283529160200191610598565b820191906000526020600020905b81548152906001019060200180831161057b57829003601f168201915b5050505050908060020154905083565b3373ffffffffffffffffffffffffffffffffffffffff168373ffffffffffffffffffffffffffffffffffffffff16636352211e846040518263ffffffff1660e01b81526004018082815260200191505060206040518083038186803b15801561061057600080fd5b505afa158015610624573d6000803e3d6000fd5b505050506040513d602081101561063a57600080fd5b810190808051906020019092919050505073ffffffffffffffffffffffffffffffffffffffff161461066b57600080fd5b60606106778484610444565b90506000816040518082805190602001908083835b602083106106af578051825260208201915060208101905060208303925061068c565b6001836020036101000a038019825116818451168082178552505050505050905001915050908152602001604051809103902060405180606001604052803373ffffffffffffffffffffffffffffffffffffffff168152602001848152602001428152509080600181540180825580915050906001820390600052602060002090600302016000909192909190915060008201518160000160006101000a81548173ffffffffffffffffffffffffffffffffffffffff021916908373ffffffffffffffffffffffffffffffffffffffff16021790555060208201518160010190805190602001906107a1929190610b08565b50604082015181600201555050506001816040518082805190602001908083835b602083106107e557805182526020820191506020810190506020830392506107c2565b6001836020036101000a0380198251168184511680821785525050505050509050019150509081526020016040518091039020600081548092919060010191905055507fabee502eeb408864240f4a84efbde94cd093a32e171ab957fca4b11565761e0633858585604051808573ffffffffffffffffffffffffffffffffffffffff1673ffffffffffffffffffffffffffffffffffffffff1681526020018473ffffffffffffffffffffffffffffffffffffffff1673ffffffffffffffffffffffffffffffffffffffff16815260200183815260200180602001828103825283818151815260200191508051906020019080838360005b838110156108f75780820151818401526020810190506108dc565b50505050905090810190601f1680156109245780820380516001836020036101000a031916815260200191505b509550505050505060405180910390a150505050565b606060146040519080825280601f01601f1916602001820160405280156109705781602001600182028038833980820191505090505b50905060008090505b60148110156109f6578060130360080260020a8373ffffffffffffffffffffffffffffffffffffffff16816109aa57fe5b0460f81b8282815181106109ba57fe5b60200101907effffffffffffffffffffffffffffffffffffffffffffffffffffffffffffff1916908160001a9053508080600101915050610979565b50919050565b606060206040519080825280601f01601f191660200182016040528015610a325781602001600182028038833980820191505090505b509050816020820152919050565b606082826040516020018083805190602001908083835b60208310610a7a5780518252602082019150602081019050602083039250610a57565b6001836020036101000a03801982511681845116808217855250505050505090500182805190602001908083835b60208310610acb5780518252602082019150602081019050602083039250610aa8565b6001836020036101000a03801982511681845116808217855250505050505090500192505050604051602081830303815290604052905092915050565b828054600181600116156101000203166002900490600052602060002090601f016020900481019282601f10610b4957805160ff1916838001178555610b77565b82800160010185558215610b77579182015b82811115610b76578251825591602001919060010190610b5b565b5b509050610b849190610b88565b5090565b610baa91905b80821115610ba6576000816000905550600101610b8e565b5090565b9056fea265627a7a72315820a2839ca266260740023b92cc1493887e7bd2f25a0d45a4c556253c933920307764736f6c634300050c0032",
  "source": "pragma solidity ^0.5.12;\n\nimport \"../node_modules/openzeppelin-solidity/contracts/token/ERC721/ERC721.sol\";\n\nlibrary ConcatHelper {\n    function concat(bytes memory a, bytes memory b)\n            internal pure returns (bytes memory) {\n        return abi.encodePacked(a, b);\n    }\n}\n\ncontract Scribe {\n\tevent Record (\n\t\taddress dictator,\n        address tokenAddress,\n        uint tokenId,\n        string text\n    );\n\n\t// A recorded document which tracks the dictator, the text, and the timestamp of when it was created\n\tstruct Document {\n\t\taddress dictator;\n\t\tstring text;\n\t\tuint creationTime;\n\t}\n\n\tmapping (bytes => Document[]) public documents;\n\t\n\tmapping (bytes => uint) public documentsCount;\n\n\tfunction dictate(address _tokenAddress, uint256 _tokenId, string memory _text) public {\n\t\t// check that the message sender owns the token at _tokenAddress\n\t\trequire(ERC721(_tokenAddress).ownerOf(_tokenId) == msg.sender);\n\t\t// get the document key for this address and token id\n\t\tbytes memory documentKey = getDocumentKey(_tokenAddress, _tokenId);\n\t\t// push a new document with the dictator address, message, and timestamp\n\t\tdocuments[documentKey].push(Document(msg.sender, _text, block.timestamp));\n\t\t// increase the documents counter for this key\n\t\tdocumentsCount[documentKey]++;\n\t\t// emit an event for this newly created record\n\t\temit Record(msg.sender, _tokenAddress, _tokenId, _text);\n\t}\n\n\tfunction getDocumentKey(address _tokenAddress, uint256 _tokenId) public pure returns (bytes memory) {\n\t\treturn ConcatHelper.concat(toBytes(_tokenAddress), toBytes(_tokenId));\n\t}\n\n\tfunction toBytes(address x) internal pure returns (bytes memory b) { \n\t\tb = new bytes(20); \n\t\n\t\tfor (uint i = 0; i < 20; i++) \n\t\t\tb[i] = byte(uint8(uint(x) / (2**(8*(19 - i))))); \n\t}\n\n\tfunction toBytes(uint256 x) internal pure returns (bytes memory b) {\n    \tb = new bytes(32);\n    \tassembly { mstore(add(b, 32), x) }\n\t}\n}",
  "sourcePath": "/Users/conlan/git/nft-scribe/contracts/Scribe.sol",
  "compiler": {
    "name": "solc",
    "version": "0.5.12+commit.7709ece9.Emscripten.clang"
  },
  "schemaVersion": "3.0.19",
  "updatedAt": "2019-11-23T09:14:04.330Z",
  "networkType": "ethereum",
  "devdoc": {
    "methods": {}
  },
  "userdoc": {
    "methods": {}
  }
}