{
  "contractName": "Scribe",
  "abi": [
    {
      "inputs": [],
      "payable": false,
      "stateMutability": "nonpayable",
      "type": "constructor"
    },
    {
      "constant": true,
      "inputs": [
        {
          "internalType": "address",
          "name": "",
          "type": "address"
        },
        {
          "internalType": "uint256",
          "name": "",
          "type": "uint256"
        }
      ],
      "name": "documents",
      "outputs": [
        {
          "internalType": "address",
          "name": "dictator",
          "type": "address"
        },
        {
          "internalType": "bytes32",
          "name": "text",
          "type": "bytes32"
        },
        {
          "internalType": "uint256",
          "name": "time",
          "type": "uint256"
        }
      ],
      "payable": false,
      "stateMutability": "view",
      "type": "function"
    },
    {
      "constant": false,
      "inputs": [],
      "name": "dictate",
      "outputs": [],
      "payable": false,
      "stateMutability": "nonpayable",
      "type": "function"
    }
  ],
  "bytecode": "0x608060405234801561001057600080fd5b50610294806100206000396000f3fe608060405234801561001057600080fd5b50600436106100365760003560e01c80634a0bd0b71461003b5780636339884414610045575b600080fd5b6100436100e1565b005b6100916004803603604081101561005b57600080fd5b81019080803573ffffffffffffffffffffffffffffffffffffffff169060200190929190803590602001909291905050506101fb565b604051808473ffffffffffffffffffffffffffffffffffffffff1673ffffffffffffffffffffffffffffffffffffffff168152602001838152602001828152602001935050505060405180910390f35b6000803373ffffffffffffffffffffffffffffffffffffffff1673ffffffffffffffffffffffffffffffffffffffff16815260200190815260200160002060405180606001604052803373ffffffffffffffffffffffffffffffffffffffff1681526020017f68656c6c6f0000000000000000000000000000000000000000000000000000008152602001428152509080600181540180825580915050906001820390600052602060002090600302016000909192909190915060008201518160000160006101000a81548173ffffffffffffffffffffffffffffffffffffffff021916908373ffffffffffffffffffffffffffffffffffffffff1602179055506020820151816001015560408201518160020155505050565b6000602052816000526040600020818154811061021457fe5b9060005260206000209060030201600091509150508060000160009054906101000a900473ffffffffffffffffffffffffffffffffffffffff1690806001015490806002015490508356fea265627a7a723158203e187e88945c0b339acbcca1f7041853720c33f29b132e5ebd148131b8282aca64736f6c634300050c0032",
  "source": "pragma solidity ^0.5.12;\n\ncontract Scribe {\n\tstruct Document {\n\t\taddress dictator;\n\t\tbytes32 text;\n\t\tuint time;\n\t}\n\n\tmapping (address => Document[]) public documents;\n\n\tconstructor() public {\n\n\t}\n\n\tfunction dictate() public {\n\t\tdocuments[msg.sender].push(Document(msg.sender, \"hello\", block.timestamp));\n\t}\n}",
  "sourcePath": "/Users/conlan/git/nft-annotations/contracts/Scribe.sol",
  "compiler": {
    "name": "solc",
    "version": "0.5.12+commit.7709ece9.Emscripten.clang"
  },
  "schemaVersion": "3.0.19",
  "updatedAt": "2019-11-22T05:20:42.296Z",
  "networkType": "ethereum",
  "devdoc": {
    "methods": {}
  },
  "userdoc": {
    "methods": {}
  }
}